{"abi":[{"type":"function","name":"DATA_URL","inputs":[],"outputs":[{"name":"","type":"string","internalType":"string"}],"stateMutability":"view"},{"type":"function","name":"main","inputs":[{"name":"webProof","type":"tuple","internalType":"struct WebProof","components":[{"name":"webProofJson","type":"string","internalType":"string"}]}],"outputs":[{"name":"","type":"tuple","internalType":"struct Proof","components":[{"name":"seal","type":"tuple","internalType":"struct Seal","components":[{"name":"verifierSelector","type":"bytes4","internalType":"bytes4"},{"name":"seal","type":"bytes32[8]","internalType":"bytes32[8]"},{"name":"mode","type":"uint8","internalType":"enum ProofMode"}]},{"name":"callGuestId","type":"bytes32","internalType":"bytes32"},{"name":"length","type":"uint256","internalType":"uint256"},{"name":"callAssumptions","type":"tuple","internalType":"struct CallAssumptions","components":[{"name":"proverContractAddress","type":"address","internalType":"address"},{"name":"functionSelector","type":"bytes4","internalType":"bytes4"},{"name":"settleChainId","type":"uint256","internalType":"uint256"},{"name":"settleBlockNumber","type":"uint256","internalType":"uint256"},{"name":"settleBlockHash","type":"bytes32","internalType":"bytes32"}]}]},{"name":"","type":"string","internalType":"string"}],"stateMutability":"view"},{"type":"function","name":"proof","inputs":[],"outputs":[{"name":"","type":"tuple","internalType":"struct Proof","components":[{"name":"seal","type":"tuple","internalType":"struct Seal","components":[{"name":"verifierSelector","type":"bytes4","internalType":"bytes4"},{"name":"seal","type":"bytes32[8]","internalType":"bytes32[8]"},{"name":"mode","type":"uint8","internalType":"enum ProofMode"}]},{"name":"callGuestId","type":"bytes32","internalType":"bytes32"},{"name":"length","type":"uint256","internalType":"uint256"},{"name":"callAssumptions","type":"tuple","internalType":"struct CallAssumptions","components":[{"name":"proverContractAddress","type":"address","internalType":"address"},{"name":"functionSelector","type":"bytes4","internalType":"bytes4"},{"name":"settleChainId","type":"uint256","internalType":"uint256"},{"name":"settleBlockNumber","type":"uint256","internalType":"uint256"},{"name":"settleBlockHash","type":"bytes32","internalType":"bytes32"}]}]}],"stateMutability":"pure"},{"type":"function","name":"setBlock","inputs":[{"name":"blockNo","type":"uint256","internalType":"uint256"}],"outputs":[],"stateMutability":"nonpayable"},{"type":"function","name":"setChain","inputs":[{"name":"chainId","type":"uint256","internalType":"uint256"},{"name":"blockNo","type":"uint256","internalType":"uint256"}],"outputs":[],"stateMutability":"nonpayable"},{"type":"error","name":"FailedInnerCall","inputs":[]}],"bytecode":{"object":"0x6080604052348015600e575f5ffd5b50611a9b8061001c5f395ff3fe608060405234801561000f575f5ffd5b5060043610610055575f3560e01c806387cea3ae146100595780639bb2bd7f14610075578063efedf81014610093578063faf924cf146100c4578063ffbc5638146100e2575b5f5ffd5b610073600480360381019061006e9190610c43565b6100fe565b005b61007d6101db565b60405161008a9190610cde565b60405180910390f35b6100ad60048036038101906100a89190610d20565b6101f7565b6040516100bb92919061100f565b60405180910390f35b6100cc610297565b6040516100d9919061103f565b60405180910390f35b6100fc60048036038101906100f79190611059565b6102ac565b005b7f2ae215ce9fde588adfdea92976dc9aa45aa006a0f63942d8f9f21bd4537972a35f1c73ffffffffffffffffffffffffffffffffffffffff166387cea3ae826040518263ffffffff1660e01b815260040161015991906110a6565b6020604051808303815f875af1158015610175573d5f5f3e3d5ffd5b505050506040513d601f19601f8201168201806040525081019061019991906110f4565b6101d8576040517f08c379a00000000000000000000000000000000000000000000000000000000081526004016101cf90611169565b60405180910390fd5b50565b6040518060600160405280603281526020016119866032913981565b6101ff610ad4565b60605f610236604051806060016040528060328152602001611986603291398561022890611310565b61038c90919063ffffffff16565b90505f6102816040518060400160405280601481526020017f726573756c742e584554485a5553442e705b305d0000000000000000000000008152508361040f90919063ffffffff16565b905061028b610297565b81935093505050915091565b61029f610ad4565b6102a7610544565b905090565b7f2ae215ce9fde588adfdea92976dc9aa45aa006a0f63942d8f9f21bd4537972a35f1c73ffffffffffffffffffffffffffffffffffffffff1663ffbc563883836040518363ffffffff1660e01b8152600401610309929190611322565b6020604051808303815f875af1158015610325573d5f5f3e3d5ffd5b505050506040513d601f19601f8201168201806040525081019061034991906110f4565b610388576040517f08c379a000000000000000000000000000000000000000000000000000000000815260040161037f90611169565b60405180910390fd5b5050565b610394610b06565b5f6103a0845f5f61055b565b90506103af816020015161069e565b6103c68382604001516108ad90919063ffffffff16565b610405576040517f08c379a00000000000000000000000000000000000000000000000000000000081526004016103fc90611393565b60405180910390fd5b8091505092915050565b60605f835f01515111610457576040517f08c379a000000000000000000000000000000000000000000000000000000000815260040161044e906113fb565b60405180910390fd5b5f6040518060400160405280855f01518152602001848152506040516020016104809190611510565b60405160208183030381529060405290505f5f600273f4e4fdca9d5d55e64525e314391996a15f7ec6006104b4919061155d565b73ffffffffffffffffffffffffffffffffffffffff16836040516104d891906115e8565b5f60405180830381855afa9150503d805f8114610510576040519150601f19603f3d011682016040523d82523d5f602084013e610515565b606091505b509150915061052482826108d4565b5080806020019051810190610539919061166c565b935050505092915050565b61054c610ad4565b610554610ad4565b8091505090565b610563610b06565b5f5f5f73f4e4fdca9d5d55e64525e314391996a15f7ec600610585919061155d565b73ffffffffffffffffffffffffffffffffffffffff168686866040516020016105b093929190611766565b6040516020818303038152906040526040516105cc91906115e8565b5f60405180830381855afa9150503d805f8114610604576040519150601f19603f3d011682016040523d82523d5f602084013e610609565b606091505b509150915061061882826108d4565b505f8180602001905181019061062e9190611872565b905060405180606001604052808260026004811061064f5761064e6118b9565b5b602002015181526020018260036004811061066d5761066c6118b9565b5b60200201518152602001825f6004811061068a576106896118b9565b5b602002015181525093505050509392505050565b6106a66108f8565b1561071a576106d6816040518060e0016040528060ae81526020016119b860ae91396108ad90919063ffffffff16565b610715576040517f08c379a000000000000000000000000000000000000000000000000000000000815260040161070c90611930565b60405180910390fd5b6108aa565b610722610915565b156107ea5761072f61097d565b73ffffffffffffffffffffffffffffffffffffffff16632505a3bd826040518263ffffffff1660e01b81526004016107679190610cde565b602060405180830381865afa158015610782573d5f5f3e3d5ffd5b505050506040513d601f19601f820116820180604052508101906107a691906110f4565b6107e5576040517f08c379a00000000000000000000000000000000000000000000000000000000081526004016107dc90611930565b60405180910390fd5b6108a9565b6107f2610998565b73ffffffffffffffffffffffffffffffffffffffff16632505a3bd826040518263ffffffff1660e01b815260040161082a9190610cde565b602060405180830381865afa158015610845573d5f5f3e3d5ffd5b505050506040513d601f19601f8201168201806040525081019061086991906110f4565b6108a8576040517f08c379a000000000000000000000000000000000000000000000000000000000815260040161089f90611930565b60405180910390fd5b5b5b50565b5f815183511480156108cc575081805190602001208380519060200120145b905092915050565b6060826108e9576108e4826109b3565b6108f1565b8190506108f2565b5b92915050565b5f6109016109f7565b80610910575061090f610a0f565b5b905090565b5f60014614806109255750600a46145b806109305750608946145b8061093c575061014446145b8061094857506101e046145b80610954575061210546145b80610960575061a4b146145b8061096c575061a4ba46145b80610978575061e70846145b905090565b5f73565dca92902ea0ca597b5e62df0b47886b6b7d4d905090565b5f73c4e4dc291a5c4debe9ff5a3372f3fdd2e42bac86905090565b5f815111156109c55780518082602001fd5b6040517f1425ea4200000000000000000000000000000000000000000000000000000000815260040160405180910390fd5b5f617a69461480610a0a57506204991946145b905090565b5f5f5f601e73f4e4fdca9d5d55e64525e314391996a15f7ec600610a33919061155d565b73ffffffffffffffffffffffffffffffffffffffff16604051610a5590611971565b5f60405180830381855afa9150503d805f8114610a8d576040519150601f19603f3d011682016040523d82523d5f602084013e610a92565b606091505b5091509150811580610aa457505f8151145b15610ab3575f92505050610ad1565b5f81806020019051810190610ac891906110f4565b90508093505050505b90565b6040518060800160405280610ae7610b27565b81526020015f81526020015f8152602001610b00610b7d565b81525090565b60405180606001604052806060815260200160608152602001606081525090565b60405180606001604052805f7bffffffffffffffffffffffffffffffffffffffffffffffffffffffff19168152602001610b5f610bdc565b81526020015f6001811115610b7757610b76610e4f565b5b81525090565b6040518060a001604052805f73ffffffffffffffffffffffffffffffffffffffff1681526020015f7bffffffffffffffffffffffffffffffffffffffffffffffffffffffff191681526020015f81526020015f81526020015f81525090565b604051806101000160405280600890602082028036833780820191505090505090565b5f604051905090565b5f5ffd5b5f5ffd5b5f819050919050565b610c2281610c10565b8114610c2c575f5ffd5b50565b5f81359050610c3d81610c19565b92915050565b5f60208284031215610c5857610c57610c08565b5b5f610c6584828501610c2f565b91505092915050565b5f81519050919050565b5f82825260208201905092915050565b8281835e5f83830152505050565b5f601f19601f8301169050919050565b5f610cb082610c6e565b610cba8185610c78565b9350610cca818560208601610c88565b610cd381610c96565b840191505092915050565b5f6020820190508181035f830152610cf68184610ca6565b905092915050565b5f5ffd5b5f60208284031215610d1757610d16610cfe565b5b81905092915050565b5f60208284031215610d3557610d34610c08565b5b5f82013567ffffffffffffffff811115610d5257610d51610c0c565b5b610d5e84828501610d02565b91505092915050565b5f7fffffffff0000000000000000000000000000000000000000000000000000000082169050919050565b610d9b81610d67565b82525050565b5f60089050919050565b5f81905092915050565b5f819050919050565b5f819050919050565b610dd081610dbe565b82525050565b5f610de18383610dc7565b60208301905092915050565b5f602082019050919050565b610e0281610da1565b610e0c8184610dab565b9250610e1782610db5565b805f5b83811015610e47578151610e2e8782610dd6565b9650610e3983610ded565b925050600181019050610e1a565b505050505050565b7f4e487b71000000000000000000000000000000000000000000000000000000005f52602160045260245ffd5b60028110610e8d57610e8c610e4f565b5b50565b5f819050610e9d82610e7c565b919050565b5f610eac82610e90565b9050919050565b610ebc81610ea2565b82525050565b61014082015f820151610ed75f850182610d92565b506020820151610eea6020850182610df9565b506040820151610efe610120850182610eb3565b50505050565b610f0d81610c10565b82525050565b5f73ffffffffffffffffffffffffffffffffffffffff82169050919050565b5f610f3c82610f13565b9050919050565b610f4c81610f32565b82525050565b60a082015f820151610f665f850182610f43565b506020820151610f796020850182610d92565b506040820151610f8c6040850182610f04565b506060820151610f9f6060850182610f04565b506080820151610fb26080850182610dc7565b50505050565b61022082015f820151610fcd5f850182610ec2565b506020820151610fe1610140850182610dc7565b506040820151610ff5610160850182610f04565b506060820151611009610180850182610f52565b50505050565b5f610240820190506110235f830185610fb8565b8181036102208301526110368184610ca6565b90509392505050565b5f610220820190506110535f830184610fb8565b92915050565b5f5f6040838503121561106f5761106e610c08565b5b5f61107c85828601610c2f565b925050602061108d85828601610c2f565b9150509250929050565b6110a081610c10565b82525050565b5f6020820190506110b95f830184611097565b92915050565b5f8115159050919050565b6110d3816110bf565b81146110dd575f5ffd5b50565b5f815190506110ee816110ca565b92915050565b5f6020828403121561110957611108610c08565b5b5f611116848285016110e0565b91505092915050565b7f4661696c6564206368656174636f646520696e766f636174696f6e00000000005f82015250565b5f611153601b83610c78565b915061115e8261111f565b602082019050919050565b5f6020820190508181035f83015261118081611147565b9050919050565b5f5ffd5b7f4e487b71000000000000000000000000000000000000000000000000000000005f52604160045260245ffd5b6111c182610c96565b810181811067ffffffffffffffff821117156111e0576111df61118b565b5b80604052505050565b5f6111f2610bff565b90506111fe82826111b8565b919050565b5f5ffd5b5f5ffd5b5f5ffd5b5f67ffffffffffffffff8211156112295761122861118b565b5b61123282610c96565b9050602081019050919050565b828183375f83830152505050565b5f61125f61125a8461120f565b6111e9565b90508281526020810184848401111561127b5761127a61120b565b5b61128684828561123f565b509392505050565b5f82601f8301126112a2576112a1611207565b5b81356112b284826020860161124d565b91505092915050565b5f602082840312156112d0576112cf611187565b5b6112da60206111e9565b90505f82013567ffffffffffffffff8111156112f9576112f8611203565b5b6113058482850161128e565b5f8301525092915050565b5f61131b36836112bb565b9050919050565b5f6040820190506113355f830185611097565b6113426020830184611097565b9392505050565b7f55524c206d69736d6174636800000000000000000000000000000000000000005f82015250565b5f61137d600c83610c78565b915061138882611349565b602082019050919050565b5f6020820190508181035f8301526113aa81611371565b9050919050565b7f426f647920697320656d707479000000000000000000000000000000000000005f82015250565b5f6113e5600d83610c78565b91506113f0826113b1565b602082019050919050565b5f6020820190508181035f830152611412816113d9565b9050919050565b5f60029050919050565b5f81905092915050565b5f819050919050565b5f82825260208201905092915050565b5f61145082610c6e565b61145a8185611436565b935061146a818560208601610c88565b61147381610c96565b840191505092915050565b5f6114898383611446565b905092915050565b5f602082019050919050565b5f6114a782611419565b6114b18185611423565b9350836020820285016114c38561142d565b805f5b858110156114fe57848403895281516114df858261147e565b94506114ea83611491565b925060208a019950506001810190506114c6565b50829750879550505050505092915050565b5f6020820190508181035f830152611528818461149d565b905092915050565b7f4e487b71000000000000000000000000000000000000000000000000000000005f52601160045260245ffd5b5f61156782610f13565b915061157283610f13565b9250828201905073ffffffffffffffffffffffffffffffffffffffff81111561159e5761159d611530565b5b92915050565b5f81519050919050565b5f81905092915050565b5f6115c2826115a4565b6115cc81856115ae565b93506115dc818560208601610c88565b80840191505092915050565b5f6115f382846115b8565b915081905092915050565b5f61161061160b8461120f565b6111e9565b90508281526020810184848401111561162c5761162b61120b565b5b611637848285610c88565b509392505050565b5f82601f83011261165357611652611207565b5b81516116638482602086016115fe565b91505092915050565b5f6020828403121561168157611680610c08565b5b5f82015167ffffffffffffffff81111561169e5761169d610c0c565b5b6116aa8482850161163f565b91505092915050565b5f602083015f8301518482035f8601526116cd8282611446565b9150508091505092915050565b600281106116eb576116ea610e4f565b5b50565b5f8190506116fb826116da565b919050565b5f61170a826116ee565b9050919050565b61171a81611700565b82525050565b6002811061173157611730610e4f565b5b50565b5f81905061174182611720565b919050565b5f61175082611734565b9050919050565b61176081611746565b82525050565b5f6060820190508181035f83015261177e81866116b3565b905061178d6020830185611711565b61179a6040830184611757565b949350505050565b5f67ffffffffffffffff8211156117bc576117bb61118b565b5b602082029050919050565b5f5ffd5b5f6117dd6117d8846117a2565b6111e9565b905080602084028301858111156117f7576117f66117c7565b5b835b8181101561183e57805167ffffffffffffffff81111561181c5761181b611207565b5b808601611829898261163f565b855260208501945050506020810190506117f9565b5050509392505050565b5f82601f83011261185c5761185b611207565b5b60046118698482856117cb565b91505092915050565b5f6020828403121561188757611886610c08565b5b5f82015167ffffffffffffffff8111156118a4576118a3610c0c565b5b6118b084828501611848565b91505092915050565b7f4e487b71000000000000000000000000000000000000000000000000000000005f52603260045260245ffd5b7f496e76616c6964206e6f74617279207075626c6963206b6579000000000000005f82015250565b5f61191a601983610c78565b9150611925826118e6565b602082019050919050565b5f6020820190508181035f8301526119478161190e565b9050919050565b50565b5f61195c5f836115ae565b91506119678261194e565b5f82019050919050565b5f61197b82611951565b915081905091905056fe68747470733a2f2f6170692e6b72616b656e2e636f6d2f302f7075626c69632f5469636b65723f706169723d4554485553442d2d2d2d2d424547494e205055424c4943204b45592d2d2d2d2d0a4d465977454159484b6f5a497a6a3043415159464b34454541416f445167414565306a786e424f6261496a37586a673654584c434d3147472f566859353635300a4f72532f6a6763624275666f2f51446646764c2f69727a4976314a536d684769566373434843776f6c684458576367653776324973513d3d0a2d2d2d2d2d454e44205055424c4943204b45592d2d2d2d2d0aa264697066735822122089d8c52e55cdf6b902942114b5579818e35717caaf6642eb8a3bf8d8249a58c364736f6c634300081d0033","linkReferences":{}},"methodIdentifiers":{"DATA_URL()":"9bb2bd7f","main((string))":"efedf810","proof()":"faf924cf","setBlock(uint256)":"87cea3ae","setChain(uint256,uint256)":"ffbc5638"},"id":66}