{"contracts/ContributionsScoring.sol":{"ContributionScoring":{"abi":[{"inputs":[{"internalType":"uint256","name":"commitsByUser","type":"uint256"},{"internalType":"uint256","name":"totalAdditions","type":"uint256"}],"name":"calculateCQS","outputs":[{"internalType":"uint256","name":"","type":"uint256"}],"stateMutability":"pure","type":"function"},{"inputs":[{"internalType":"uint256","name":"productionCommits","type":"uint256"}],"name":"calculatePPB","outputs":[{"internalType":"uint256","name":"","type":"uint256"}],"stateMutability":"pure","type":"function"},{"inputs":[{"internalType":"uint256","name":"stars","type":"uint256"},{"internalType":"uint256","name":"forks","type":"uint256"},{"internalType":"uint256","name":"contributors","type":"uint256"}],"name":"calculateRIS","outputs":[{"internalType":"uint256","name":"","type":"uint256"}],"stateMutability":"pure","type":"function"},{"inputs":[{"components":[{"internalType":"uint256","name":"stars","type":"uint256"},{"internalType":"uint256","name":"forks","type":"uint256"},{"internalType":"uint256","name":"contributors","type":"uint256"},{"internalType":"uint256","name":"commitsByUser","type":"uint256"},{"internalType":"uint256","name":"totalAdditions","type":"uint256"},{"internalType":"uint256","name":"productionCommits","type":"uint256"}],"internalType":"struct ContributionScoring.RepoMetrics","name":"m","type":"tuple"}],"name":"calculateRepoScore","outputs":[{"internalType":"uint256","name":"","type":"uint256"}],"stateMutability":"pure","type":"function"},{"inputs":[{"components":[{"internalType":"uint256","name":"stars","type":"uint256"},{"internalType":"uint256","name":"forks","type":"uint256"},{"internalType":"uint256","name":"contributors","type":"uint256"},{"internalType":"uint256","name":"commitsByUser","type":"uint256"},{"internalType":"uint256","name":"totalAdditions","type":"uint256"},{"internalType":"uint256","name":"productionCommits","type":"uint256"}],"internalType":"struct ContributionScoring.RepoMetrics[]","name":"metrics","type":"tuple[]"}],"name":"calculateTotalScore","outputs":[{"internalType":"uint256","name":"","type":"uint256"}],"stateMutability":"pure","type":"function"},{"inputs":[{"internalType":"uint256","name":"x","type":"uint256"}],"name":"log2","outputs":[{"internalType":"uint256","name":"y","type":"uint256"}],"stateMutability":"pure","type":"function"}],"evm":{"bytecode":{"linkReferences":{},"object":"608060405234801561001057600080fd5b50610865806100206000396000f3fe608060405234801561001057600080fd5b50600436106100625760003560e01c8063194136db1461006757806351633e11146100975780635456bf13146100c75780635b4c7c9e146100f7578063d2e3d1aa14610127578063fcc8eccb14610157575b600080fd5b610081600480360381019061007c91906104b2565b610187565b60405161008e91906105df565b60405180910390f35b6100b160048036038101906100ac91906104f3565b61020d565b6040516100be91906105df565b60405180910390f35b6100e160048036038101906100dc919061051c565b610289565b6040516100ee91906105df565b60405180910390f35b610111600480360381019061010c9190610581565b6102b4565b60405161011e91906105df565b60405180910390f35b610141600480360381019061013c9190610545565b610327565b60405161014e91906105df565b60405180910390f35b610171600480360381019061016c919061051c565b610355565b60405161017e91906105df565b60405180910390f35b6000806000905060005b8351811015610203576101e38482815181106101d6577f4e487b7100000000000000000000000000000000000000000000000000000000600052603260045260246000fd5b602002602001015161020d565b826101ee9190610657565b915080806101fb90610742565b915050610191565b5080915050919050565b6000806102278360000151846020015185604001516102b4565b9050600061023d84606001518560800151610327565b9050600061024e8560a00151610355565b90506000818361025e9190610657565b905060006064828661027091906106de565b61027a91906106ad565b90508095505050505050919050565b60005b60018211156102af57600182901c915080806102a790610742565b91505061028c565b919050565b6000806032836102c491906106de565b60966102db6001876102d69190610657565b610289565b6102e591906106de565b60c86102fc6001896102f79190610657565b610289565b61030691906106de565b6103109190610657565b61031a9190610657565b9050809150509392505050565b600060648261033691906106ad565b60028461034391906106de565b61034d9190610657565b905092915050565b600060058261036491906106de565b9050919050565b600061037e6103798461062b565b6105fa565b905080838252602082019050828560c086028201111561039d57600080fd5b60005b858110156103cd57816103b38882610401565b845260208401935060c083019250506001810190506103a0565b5050509392505050565b600082601f8301126103e857600080fd5b81356103f884826020860161036b565b91505092915050565b600060c0828403121561041357600080fd5b61041d60c06105fa565b9050600061042d8482850161049d565b60008301525060206104418482850161049d565b60208301525060406104558482850161049d565b60408301525060606104698482850161049d565b606083015250608061047d8482850161049d565b60808301525060a06104918482850161049d565b60a08301525092915050565b6000813590506104ac81610818565b92915050565b6000602082840312156104c457600080fd5b600082013567ffffffffffffffff8111156104de57600080fd5b6104ea848285016103d7565b91505092915050565b600060c0828403121561050557600080fd5b600061051384828501610401565b91505092915050565b60006020828403121561052e57600080fd5b600061053c8482850161049d565b91505092915050565b6000806040838503121561055857600080fd5b60006105668582860161049d565b92505060206105778582860161049d565b9150509250929050565b60008060006060848603121561059657600080fd5b60006105a48682870161049d565b93505060206105b58682870161049d565b92505060406105c68682870161049d565b9150509250925092565b6105d981610738565b82525050565b60006020820190506105f460008301846105d0565b92915050565b6000604051905081810181811067ffffffffffffffff82111715610621576106206107e9565b5b8060405250919050565b600067ffffffffffffffff821115610646576106456107e9565b5b602082029050602081019050919050565b600061066282610738565b915061066d83610738565b9250827fffffffffffffffffffffffffffffffffffffffffffffffffffffffffffffffff038211156106a2576106a161078b565b5b828201905092915050565b60006106b882610738565b91506106c383610738565b9250826106d3576106d26107ba565b5b828204905092915050565b60006106e982610738565b91506106f483610738565b9250817fffffffffffffffffffffffffffffffffffffffffffffffffffffffffffffffff048311821515161561072d5761072c61078b565b5b828202905092915050565b6000819050919050565b600061074d82610738565b91507fffffffffffffffffffffffffffffffffffffffffffffffffffffffffffffffff8214156107805761077f61078b565b5b600182019050919050565b7f4e487b7100000000000000000000000000000000000000000000000000000000600052601160045260246000fd5b7f4e487b7100000000000000000000000000000000000000000000000000000000600052601260045260246000fd5b7f4e487b7100000000000000000000000000000000000000000000000000000000600052604160045260246000fd5b61082181610738565b811461082c57600080fd5b5056fea2646970667358221220004a940ce2dab79cdfce37cecca4836abd6efc934436324bf02f430a9b9b826164736f6c63430008000033","opcodes":"PUSH1 0x80 PUSH1 0x40 MSTORE CALLVALUE DUP1 ISZERO PUSH2 0x10 JUMPI PUSH1 0x0 DUP1 REVERT JUMPDEST POP PUSH2 0x865 DUP1 PUSH2 0x20 PUSH1 0x0 CODECOPY PUSH1 0x0 RETURN INVALID PUSH1 0x80 PUSH1 0x40 MSTORE CALLVALUE DUP1 ISZERO PUSH2 0x10 JUMPI PUSH1 0x0 DUP1 REVERT JUMPDEST POP PUSH1 0x4 CALLDATASIZE LT PUSH2 0x62 JUMPI PUSH1 0x0 CALLDATALOAD PUSH1 0xE0 SHR DUP1 PUSH4 0x194136DB EQ PUSH2 0x67 JUMPI DUP1 PUSH4 0x51633E11 EQ PUSH2 0x97 JUMPI DUP1 PUSH4 0x5456BF13 EQ PUSH2 0xC7 JUMPI DUP1 PUSH4 0x5B4C7C9E EQ PUSH2 0xF7 JUMPI DUP1 PUSH4 0xD2E3D1AA EQ PUSH2 0x127 JUMPI DUP1 PUSH4 0xFCC8ECCB EQ PUSH2 0x157 JUMPI JUMPDEST PUSH1 0x0 DUP1 REVERT JUMPDEST PUSH2 0x81 PUSH1 0x4 DUP1 CALLDATASIZE SUB DUP2 ADD SWAP1 PUSH2 0x7C SWAP2 SWAP1 PUSH2 0x4B2 JUMP JUMPDEST PUSH2 0x187 JUMP JUMPDEST PUSH1 0x40 MLOAD PUSH2 0x8E SWAP2 SWAP1 PUSH2 0x5DF JUMP JUMPDEST PUSH1 0x40 MLOAD DUP1 SWAP2 SUB SWAP1 RETURN JUMPDEST PUSH2 0xB1 PUSH1 0x4 DUP1 CALLDATASIZE SUB DUP2 ADD SWAP1 PUSH2 0xAC SWAP2 SWAP1 PUSH2 0x4F3 JUMP JUMPDEST PUSH2 0x20D JUMP JUMPDEST PUSH1 0x40 MLOAD PUSH2 0xBE SWAP2 SWAP1 PUSH2 0x5DF JUMP JUMPDEST PUSH1 0x40 MLOAD DUP1 SWAP2 SUB SWAP1 RETURN JUMPDEST PUSH2 0xE1 PUSH1 0x4 DUP1 CALLDATASIZE SUB DUP2 ADD SWAP1 PUSH2 0xDC SWAP2 SWAP1 PUSH2 0x51C JUMP JUMPDEST PUSH2 0x289 JUMP JUMPDEST PUSH1 0x40 MLOAD PUSH2 0xEE SWAP2 SWAP1 PUSH2 0x5DF JUMP JUMPDEST PUSH1 0x40 MLOAD DUP1 SWAP2 SUB SWAP1 RETURN JUMPDEST PUSH2 0x111 PUSH1 0x4 DUP1 CALLDATASIZE SUB DUP2 ADD SWAP1 PUSH2 0x10C SWAP2 SWAP1 PUSH2 0x581 JUMP JUMPDEST PUSH2 0x2B4 JUMP JUMPDEST PUSH1 0x40 MLOAD PUSH2 0x11E SWAP2 SWAP1 PUSH2 0x5DF JUMP JUMPDEST PUSH1 0x40 MLOAD DUP1 SWAP2 SUB SWAP1 RETURN JUMPDEST PUSH2 0x141 PUSH1 0x4 DUP1 CALLDATASIZE SUB DUP2 ADD SWAP1 PUSH2 0x13C SWAP2 SWAP1 PUSH2 0x545 JUMP JUMPDEST PUSH2 0x327 JUMP JUMPDEST PUSH1 0x40 MLOAD PUSH2 0x14E SWAP2 SWAP1 PUSH2 0x5DF JUMP JUMPDEST PUSH1 0x40 MLOAD DUP1 SWAP2 SUB SWAP1 RETURN JUMPDEST PUSH2 0x171 PUSH1 0x4 DUP1 CALLDATASIZE SUB DUP2 ADD SWAP1 PUSH2 0x16C SWAP2 SWAP1 PUSH2 0x51C JUMP JUMPDEST PUSH2 0x355 JUMP JUMPDEST PUSH1 0x40 MLOAD PUSH2 0x17E SWAP2 SWAP1 PUSH2 0x5DF JUMP JUMPDEST PUSH1 0x40 MLOAD DUP1 SWAP2 SUB SWAP1 RETURN JUMPDEST PUSH1 0x0 DUP1 PUSH1 0x0 SWAP1 POP PUSH1 0x0 JUMPDEST DUP4 MLOAD DUP2 LT ISZERO PUSH2 0x203 JUMPI PUSH2 0x1E3 DUP5 DUP3 DUP2 MLOAD DUP2 LT PUSH2 0x1D6 JUMPI PUSH32 0x4E487B7100000000000000000000000000000000000000000000000000000000 PUSH1 0x0 MSTORE PUSH1 0x32 PUSH1 0x4 MSTORE PUSH1 0x24 PUSH1 0x0 REVERT JUMPDEST PUSH1 0x20 MUL PUSH1 0x20 ADD ADD MLOAD PUSH2 0x20D JUMP JUMPDEST DUP3 PUSH2 0x1EE SWAP2 SWAP1 PUSH2 0x657 JUMP JUMPDEST SWAP2 POP DUP1 DUP1 PUSH2 0x1FB SWAP1 PUSH2 0x742 JUMP JUMPDEST SWAP2 POP POP PUSH2 0x191 JUMP JUMPDEST POP DUP1 SWAP2 POP POP SWAP2 SWAP1 POP JUMP JUMPDEST PUSH1 0x0 DUP1 PUSH2 0x227 DUP4 PUSH1 0x0 ADD MLOAD DUP5 PUSH1 0x20 ADD MLOAD DUP6 PUSH1 0x40 ADD MLOAD PUSH2 0x2B4 JUMP JUMPDEST SWAP1 POP PUSH1 0x0 PUSH2 0x23D DUP5 PUSH1 0x60 ADD MLOAD DUP6 PUSH1 0x80 ADD MLOAD PUSH2 0x327 JUMP JUMPDEST SWAP1 POP PUSH1 0x0 PUSH2 0x24E DUP6 PUSH1 0xA0 ADD MLOAD PUSH2 0x355 JUMP JUMPDEST SWAP1 POP PUSH1 0x0 DUP2 DUP4 PUSH2 0x25E SWAP2 SWAP1 PUSH2 0x657 JUMP JUMPDEST SWAP1 POP PUSH1 0x0 PUSH1 0x64 DUP3 DUP7 PUSH2 0x270 SWAP2 SWAP1 PUSH2 0x6DE JUMP JUMPDEST PUSH2 0x27A SWAP2 SWAP1 PUSH2 0x6AD JUMP JUMPDEST SWAP1 POP DUP1 SWAP6 POP POP POP POP POP POP SWAP2 SWAP1 POP JUMP JUMPDEST PUSH1 0x0 JUMPDEST PUSH1 0x1 DUP3 GT ISZERO PUSH2 0x2AF JUMPI PUSH1 0x1 DUP3 SWAP1 SHR SWAP2 POP DUP1 DUP1 PUSH2 0x2A7 SWAP1 PUSH2 0x742 JUMP JUMPDEST SWAP2 POP POP PUSH2 0x28C JUMP JUMPDEST SWAP2 SWAP1 POP JUMP JUMPDEST PUSH1 0x0 DUP1 PUSH1 0x32 DUP4 PUSH2 0x2C4 SWAP2 SWAP1 PUSH2 0x6DE JUMP JUMPDEST PUSH1 0x96 PUSH2 0x2DB PUSH1 0x1 DUP8 PUSH2 0x2D6 SWAP2 SWAP1 PUSH2 0x657 JUMP JUMPDEST PUSH2 0x289 JUMP JUMPDEST PUSH2 0x2E5 SWAP2 SWAP1 PUSH2 0x6DE JUMP JUMPDEST PUSH1 0xC8 PUSH2 0x2FC PUSH1 0x1 DUP10 PUSH2 0x2F7 SWAP2 SWAP1 PUSH2 0x657 JUMP JUMPDEST PUSH2 0x289 JUMP JUMPDEST PUSH2 0x306 SWAP2 SWAP1 PUSH2 0x6DE JUMP JUMPDEST PUSH2 0x310 SWAP2 SWAP1 PUSH2 0x657 JUMP JUMPDEST PUSH2 0x31A SWAP2 SWAP1 PUSH2 0x657 JUMP JUMPDEST SWAP1 POP DUP1 SWAP2 POP POP SWAP4 SWAP3 POP POP POP JUMP JUMPDEST PUSH1 0x0 PUSH1 0x64 DUP3 PUSH2 0x336 SWAP2 SWAP1 PUSH2 0x6AD JUMP JUMPDEST PUSH1 0x2 DUP5 PUSH2 0x343 SWAP2 SWAP1 PUSH2 0x6DE JUMP JUMPDEST PUSH2 0x34D SWAP2 SWAP1 PUSH2 0x657 JUMP JUMPDEST SWAP1 POP SWAP3 SWAP2 POP POP JUMP JUMPDEST PUSH1 0x0 PUSH1 0x5 DUP3 PUSH2 0x364 SWAP2 SWAP1 PUSH2 0x6DE JUMP JUMPDEST SWAP1 POP SWAP2 SWAP1 POP JUMP JUMPDEST PUSH1 0x0 PUSH2 0x37E PUSH2 0x379 DUP5 PUSH2 0x62B JUMP JUMPDEST PUSH2 0x5FA JUMP JUMPDEST SWAP1 POP DUP1 DUP4 DUP3 MSTORE PUSH1 0x20 DUP3 ADD SWAP1 POP DUP3 DUP6 PUSH1 0xC0 DUP7 MUL DUP3 ADD GT ISZERO PUSH2 0x39D JUMPI PUSH1 0x0 DUP1 REVERT JUMPDEST PUSH1 0x0 JUMPDEST DUP6 DUP2 LT ISZERO PUSH2 0x3CD JUMPI DUP2 PUSH2 0x3B3 DUP9 DUP3 PUSH2 0x401 JUMP JUMPDEST DUP5 MSTORE PUSH1 0x20 DUP5 ADD SWAP4 POP PUSH1 0xC0 DUP4 ADD SWAP3 POP POP PUSH1 0x1 DUP2 ADD SWAP1 POP PUSH2 0x3A0 JUMP JUMPDEST POP POP POP SWAP4 SWAP3 POP POP POP JUMP JUMPDEST PUSH1 0x0 DUP3 PUSH1 0x1F DUP4 ADD SLT PUSH2 0x3E8 JUMPI PUSH1 0x0 DUP1 REVERT JUMPDEST DUP2 CALLDATALOAD PUSH2 0x3F8 DUP5 DUP3 PUSH1 0x20 DUP7 ADD PUSH2 0x36B JUMP JUMPDEST SWAP2 POP POP SWAP3 SWAP2 POP POP JUMP JUMPDEST PUSH1 0x0 PUSH1 0xC0 DUP3 DUP5 SUB SLT ISZERO PUSH2 0x413 JUMPI PUSH1 0x0 DUP1 REVERT JUMPDEST PUSH2 0x41D PUSH1 0xC0 PUSH2 0x5FA JUMP JUMPDEST SWAP1 POP PUSH1 0x0 PUSH2 0x42D DUP5 DUP3 DUP6 ADD PUSH2 0x49D JUMP JUMPDEST PUSH1 0x0 DUP4 ADD MSTORE POP PUSH1 0x20 PUSH2 0x441 DUP5 DUP3 DUP6 ADD PUSH2 0x49D JUMP JUMPDEST PUSH1 0x20 DUP4 ADD MSTORE POP PUSH1 0x40 PUSH2 0x455 DUP5 DUP3 DUP6 ADD PUSH2 0x49D JUMP JUMPDEST PUSH1 0x40 DUP4 ADD MSTORE POP PUSH1 0x60 PUSH2 0x469 DUP5 DUP3 DUP6 ADD PUSH2 0x49D JUMP JUMPDEST PUSH1 0x60 DUP4 ADD MSTORE POP PUSH1 0x80 PUSH2 0x47D DUP5 DUP3 DUP6 ADD PUSH2 0x49D JUMP JUMPDEST PUSH1 0x80 DUP4 ADD MSTORE POP PUSH1 0xA0 PUSH2 0x491 DUP5 DUP3 DUP6 ADD PUSH2 0x49D JUMP JUMPDEST PUSH1 0xA0 DUP4 ADD MSTORE POP SWAP3 SWAP2 POP POP JUMP JUMPDEST PUSH1 0x0 DUP2 CALLDATALOAD SWAP1 POP PUSH2 0x4AC DUP2 PUSH2 0x818 JUMP JUMPDEST SWAP3 SWAP2 POP POP JUMP JUMPDEST PUSH1 0x0 PUSH1 0x20 DUP3 DUP5 SUB SLT ISZERO PUSH2 0x4C4 JUMPI PUSH1 0x0 DUP1 REVERT JUMPDEST PUSH1 0x0 DUP3 ADD CALLDATALOAD PUSH8 0xFFFFFFFFFFFFFFFF DUP2 GT ISZERO PUSH2 0x4DE JUMPI PUSH1 0x0 DUP1 REVERT JUMPDEST PUSH2 0x4EA DUP5 DUP3 DUP6 ADD PUSH2 0x3D7 JUMP JUMPDEST SWAP2 POP POP SWAP3 SWAP2 POP POP JUMP JUMPDEST PUSH1 0x0 PUSH1 0xC0 DUP3 DUP5 SUB SLT ISZERO PUSH2 0x505 JUMPI PUSH1 0x0 DUP1 REVERT JUMPDEST PUSH1 0x0 PUSH2 0x513 DUP5 DUP3 DUP6 ADD PUSH2 0x401 JUMP JUMPDEST SWAP2 POP POP SWAP3 SWAP2 POP POP JUMP JUMPDEST PUSH1 0x0 PUSH1 0x20 DUP3 DUP5 SUB SLT ISZERO PUSH2 0x52E JUMPI PUSH1 0x0 DUP1 REVERT JUMPDEST PUSH1 0x0 PUSH2 0x53C DUP5 DUP3 DUP6 ADD PUSH2 0x49D JUMP JUMPDEST SWAP2 POP POP SWAP3 SWAP2 POP POP JUMP JUMPDEST PUSH1 0x0 DUP1 PUSH1 0x40 DUP4 DUP6 SUB SLT ISZERO PUSH2 0x558 JUMPI PUSH1 0x0 DUP1 REVERT JUMPDEST PUSH1 0x0 PUSH2 0x566 DUP6 DUP3 DUP7 ADD PUSH2 0x49D JUMP JUMPDEST SWAP3 POP POP PUSH1 0x20 PUSH2 0x577 DUP6 DUP3 DUP7 ADD PUSH2 0x49D JUMP JUMPDEST SWAP2 POP POP SWAP3 POP SWAP3 SWAP1 POP JUMP JUMPDEST PUSH1 0x0 DUP1 PUSH1 0x0 PUSH1 0x60 DUP5 DUP7 SUB SLT ISZERO PUSH2 0x596 JUMPI PUSH1 0x0 DUP1 REVERT JUMPDEST PUSH1 0x0 PUSH2 0x5A4 DUP7 DUP3 DUP8 ADD PUSH2 0x49D JUMP JUMPDEST SWAP4 POP POP PUSH1 0x20 PUSH2 0x5B5 DUP7 DUP3 DUP8 ADD PUSH2 0x49D JUMP JUMPDEST SWAP3 POP POP PUSH1 0x40 PUSH2 0x5C6 DUP7 DUP3 DUP8 ADD PUSH2 0x49D JUMP JUMPDEST SWAP2 POP POP SWAP3 POP SWAP3 POP SWAP3 JUMP JUMPDEST PUSH2 0x5D9 DUP2 PUSH2 0x738 JUMP JUMPDEST DUP3 MSTORE POP POP JUMP JUMPDEST PUSH1 0x0 PUSH1 0x20 DUP3 ADD SWAP1 POP PUSH2 0x5F4 PUSH1 0x0 DUP4 ADD DUP5 PUSH2 0x5D0 JUMP JUMPDEST SWAP3 SWAP2 POP POP JUMP JUMPDEST PUSH1 0x0 PUSH1 0x40 MLOAD SWAP1 POP DUP2 DUP2 ADD DUP2 DUP2 LT PUSH8 0xFFFFFFFFFFFFFFFF DUP3 GT OR ISZERO PUSH2 0x621 JUMPI PUSH2 0x620 PUSH2 0x7E9 JUMP JUMPDEST JUMPDEST DUP1 PUSH1 0x40 MSTORE POP SWAP2 SWAP1 POP JUMP JUMPDEST PUSH1 0x0 PUSH8 0xFFFFFFFFFFFFFFFF DUP3 GT ISZERO PUSH2 0x646 JUMPI PUSH2 0x645 PUSH2 0x7E9 JUMP JUMPDEST JUMPDEST PUSH1 0x20 DUP3 MUL SWAP1 POP PUSH1 0x20 DUP2 ADD SWAP1 POP SWAP2 SWAP1 POP JUMP JUMPDEST PUSH1 0x0 PUSH2 0x662 DUP3 PUSH2 0x738 JUMP JUMPDEST SWAP2 POP PUSH2 0x66D DUP4 PUSH2 0x738 JUMP JUMPDEST SWAP3 POP DUP3 PUSH32 0xFFFFFFFFFFFFFFFFFFFFFFFFFFFFFFFFFFFFFFFFFFFFFFFFFFFFFFFFFFFFFFFF SUB DUP3 GT ISZERO PUSH2 0x6A2 JUMPI PUSH2 0x6A1 PUSH2 0x78B JUMP JUMPDEST JUMPDEST DUP3 DUP3 ADD SWAP1 POP SWAP3 SWAP2 POP POP JUMP JUMPDEST PUSH1 0x0 PUSH2 0x6B8 DUP3 PUSH2 0x738 JUMP JUMPDEST SWAP2 POP PUSH2 0x6C3 DUP4 PUSH2 0x738 JUMP JUMPDEST SWAP3 POP DUP3 PUSH2 0x6D3 JUMPI PUSH2 0x6D2 PUSH2 0x7BA JUMP JUMPDEST JUMPDEST DUP3 DUP3 DIV SWAP1 POP SWAP3 SWAP2 POP POP JUMP JUMPDEST PUSH1 0x0 PUSH2 0x6E9 DUP3 PUSH2 0x738 JUMP JUMPDEST SWAP2 POP PUSH2 0x6F4 DUP4 PUSH2 0x738 JUMP JUMPDEST SWAP3 POP DUP2 PUSH32 0xFFFFFFFFFFFFFFFFFFFFFFFFFFFFFFFFFFFFFFFFFFFFFFFFFFFFFFFFFFFFFFFF DIV DUP4 GT DUP3 ISZERO ISZERO AND ISZERO PUSH2 0x72D JUMPI PUSH2 0x72C PUSH2 0x78B JUMP JUMPDEST JUMPDEST DUP3 DUP3 MUL SWAP1 POP SWAP3 SWAP2 POP POP JUMP JUMPDEST PUSH1 0x0 DUP2 SWAP1 POP SWAP2 SWAP1 POP JUMP JUMPDEST PUSH1 0x0 PUSH2 0x74D DUP3 PUSH2 0x738 JUMP JUMPDEST SWAP2 POP PUSH32 0xFFFFFFFFFFFFFFFFFFFFFFFFFFFFFFFFFFFFFFFFFFFFFFFFFFFFFFFFFFFFFFFF DUP3 EQ ISZERO PUSH2 0x780 JUMPI PUSH2 0x77F PUSH2 0x78B JUMP JUMPDEST JUMPDEST PUSH1 0x1 DUP3 ADD SWAP1 POP SWAP2 SWAP1 POP JUMP JUMPDEST PUSH32 0x4E487B7100000000000000000000000000000000000000000000000000000000 PUSH1 0x0 MSTORE PUSH1 0x11 PUSH1 0x4 MSTORE PUSH1 0x24 PUSH1 0x0 REVERT JUMPDEST PUSH32 0x4E487B7100000000000000000000000000000000000000000000000000000000 PUSH1 0x0 MSTORE PUSH1 0x12 PUSH1 0x4 MSTORE PUSH1 0x24 PUSH1 0x0 REVERT JUMPDEST PUSH32 0x4E487B7100000000000000000000000000000000000000000000000000000000 PUSH1 0x0 MSTORE PUSH1 0x41 PUSH1 0x4 MSTORE PUSH1 0x24 PUSH1 0x0 REVERT JUMPDEST PUSH2 0x821 DUP2 PUSH2 0x738 JUMP JUMPDEST DUP2 EQ PUSH2 0x82C JUMPI PUSH1 0x0 DUP1 REVERT JUMPDEST POP JUMP INVALID LOG2 PUSH5 0x6970667358 0x22 SLT KECCAK256 STOP 0x4A SWAP5 0xC 0xE2 0xDA 0xB7 SWAP13 0xDF 0xCE CALLDATACOPY 0xCE 0xCC LOG4 DUP4 PUSH11 0xBD6EFC934436324BF02F43 EXP SWAP12 SWAP12 DUP3 PUSH2 0x6473 PUSH16 0x6C634300080000330000000000000000 "},"methodIdentifiers":{"calculateCQS(uint256,uint256)":"d2e3d1aa","calculatePPB(uint256)":"fcc8eccb","calculateRIS(uint256,uint256,uint256)":"5b4c7c9e","calculateRepoScore((uint256,uint256,uint256,uint256,uint256,uint256))":"51633e11","calculateTotalScore((uint256,uint256,uint256,uint256,uint256,uint256)[])":"194136db","log2(uint256)":"5456bf13"}}}}}