{
  "_format": "hh-sol-artifact-1",
  "contractName": "ContributionScoring",
  "sourceName": "contracts/ContributionsScoring.sol",
  "abi": [
    {
      "inputs": [
        {
          "internalType": "uint256",
          "name": "commitsByUser",
          "type": "uint256"
        },
        {
          "internalType": "uint256",
          "name": "totalAdditions",
          "type": "uint256"
        }
      ],
      "name": "calculateCQS",
      "outputs": [
        {
          "internalType": "uint256",
          "name": "",
          "type": "uint256"
        }
      ],
      "stateMutability": "pure",
      "type": "function"
    },
    {
      "inputs": [
        {
          "internalType": "uint256",
          "name": "productionCommits",
          "type": "uint256"
        }
      ],
      "name": "calculatePPB",
      "outputs": [
        {
          "internalType": "uint256",
          "name": "",
          "type": "uint256"
        }
      ],
      "stateMutability": "pure",
      "type": "function"
    },
    {
      "inputs": [
        {
          "internalType": "uint256",
          "name": "stars",
          "type": "uint256"
        },
        {
          "internalType": "uint256",
          "name": "forks",
          "type": "uint256"
        },
        {
          "internalType": "uint256",
          "name": "contributors",
          "type": "uint256"
        }
      ],
      "name": "calculateRIS",
      "outputs": [
        {
          "internalType": "uint256",
          "name": "",
          "type": "uint256"
        }
      ],
      "stateMutability": "pure",
      "type": "function"
    },
    {
      "inputs": [
        {
          "components": [
            {
              "internalType": "uint256",
              "name": "stars",
              "type": "uint256"
            },
            {
              "internalType": "uint256",
              "name": "forks",
              "type": "uint256"
            },
            {
              "internalType": "uint256",
              "name": "contributors",
              "type": "uint256"
            },
            {
              "internalType": "uint256",
              "name": "commitsByUser",
              "type": "uint256"
            },
            {
              "internalType": "uint256",
              "name": "totalAdditions",
              "type": "uint256"
            },
            {
              "internalType": "uint256",
              "name": "productionCommits",
              "type": "uint256"
            }
          ],
          "internalType": "struct ContributionScoring.RepoMetrics",
          "name": "m",
          "type": "tuple"
        }
      ],
      "name": "calculateRepoScore",
      "outputs": [
        {
          "internalType": "uint256",
          "name": "",
          "type": "uint256"
        }
      ],
      "stateMutability": "pure",
      "type": "function"
    },
    {
      "inputs": [
        {
          "components": [
            {
              "internalType": "uint256",
              "name": "stars",
              "type": "uint256"
            },
            {
              "internalType": "uint256",
              "name": "forks",
              "type": "uint256"
            },
            {
              "internalType": "uint256",
              "name": "contributors",
              "type": "uint256"
            },
            {
              "internalType": "uint256",
              "name": "commitsByUser",
              "type": "uint256"
            },
            {
              "internalType": "uint256",
              "name": "totalAdditions",
              "type": "uint256"
            },
            {
              "internalType": "uint256",
              "name": "productionCommits",
              "type": "uint256"
            }
          ],
          "internalType": "struct ContributionScoring.RepoMetrics[]",
          "name": "metrics",
          "type": "tuple[]"
        }
      ],
      "name": "calculateTotalScore",
      "outputs": [
        {
          "internalType": "uint256",
          "name": "",
          "type": "uint256"
        }
      ],
      "stateMutability": "pure",
      "type": "function"
    },
    {
      "inputs": [
        {
          "internalType": "uint256",
          "name": "x",
          "type": "uint256"
        }
      ],
      "name": "log2",
      "outputs": [
        {
          "internalType": "uint256",
          "name": "y",
          "type": "uint256"
        }
      ],
      "stateMutability": "pure",
      "type": "function"
    }
  ],
  "bytecode": "0x608060405234801561001057600080fd5b50610865806100206000396000f3fe608060405234801561001057600080fd5b50600436106100625760003560e01c8063194136db1461006757806351633e11146100975780635456bf13146100c75780635b4c7c9e146100f7578063d2e3d1aa14610127578063fcc8eccb14610157575b600080fd5b610081600480360381019061007c91906104b2565b610187565b60405161008e91906105df565b60405180910390f35b6100b160048036038101906100ac91906104f3565b61020d565b6040516100be91906105df565b60405180910390f35b6100e160048036038101906100dc919061051c565b610289565b6040516100ee91906105df565b60405180910390f35b610111600480360381019061010c9190610581565b6102b4565b60405161011e91906105df565b60405180910390f35b610141600480360381019061013c9190610545565b610327565b60405161014e91906105df565b60405180910390f35b610171600480360381019061016c919061051c565b610355565b60405161017e91906105df565b60405180910390f35b6000806000905060005b8351811015610203576101e38482815181106101d6577f4e487b7100000000000000000000000000000000000000000000000000000000600052603260045260246000fd5b602002602001015161020d565b826101ee9190610657565b915080806101fb90610742565b915050610191565b5080915050919050565b6000806102278360000151846020015185604001516102b4565b9050600061023d84606001518560800151610327565b9050600061024e8560a00151610355565b90506000818361025e9190610657565b905060006064828661027091906106de565b61027a91906106ad565b90508095505050505050919050565b60005b60018211156102af57600182901c915080806102a790610742565b91505061028c565b919050565b6000806032836102c491906106de565b60966102db6001876102d69190610657565b610289565b6102e591906106de565b60c86102fc6001896102f79190610657565b610289565b61030691906106de565b6103109190610657565b61031a9190610657565b9050809150509392505050565b600060648261033691906106ad565b60028461034391906106de565b61034d9190610657565b905092915050565b600060058261036491906106de565b9050919050565b600061037e6103798461062b565b6105fa565b905080838252602082019050828560c086028201111561039d57600080fd5b60005b858110156103cd57816103b38882610401565b845260208401935060c083019250506001810190506103a0565b5050509392505050565b600082601f8301126103e857600080fd5b81356103f884826020860161036b565b91505092915050565b600060c0828403121561041357600080fd5b61041d60c06105fa565b9050600061042d8482850161049d565b60008301525060206104418482850161049d565b60208301525060406104558482850161049d565b60408301525060606104698482850161049d565b606083015250608061047d8482850161049d565b60808301525060a06104918482850161049d565b60a08301525092915050565b6000813590506104ac81610818565b92915050565b6000602082840312156104c457600080fd5b600082013567ffffffffffffffff8111156104de57600080fd5b6104ea848285016103d7565b91505092915050565b600060c0828403121561050557600080fd5b600061051384828501610401565b91505092915050565b60006020828403121561052e57600080fd5b600061053c8482850161049d565b91505092915050565b6000806040838503121561055857600080fd5b60006105668582860161049d565b92505060206105778582860161049d565b9150509250929050565b60008060006060848603121561059657600080fd5b60006105a48682870161049d565b93505060206105b58682870161049d565b92505060406105c68682870161049d565b9150509250925092565b6105d981610738565b82525050565b60006020820190506105f460008301846105d0565b92915050565b6000604051905081810181811067ffffffffffffffff82111715610621576106206107e9565b5b8060405250919050565b600067ffffffffffffffff821115610646576106456107e9565b5b602082029050602081019050919050565b600061066282610738565b915061066d83610738565b9250827fffffffffffffffffffffffffffffffffffffffffffffffffffffffffffffffff038211156106a2576106a161078b565b5b828201905092915050565b60006106b882610738565b91506106c383610738565b9250826106d3576106d26107ba565b5b828204905092915050565b60006106e982610738565b91506106f483610738565b9250817fffffffffffffffffffffffffffffffffffffffffffffffffffffffffffffffff048311821515161561072d5761072c61078b565b5b828202905092915050565b6000819050919050565b600061074d82610738565b91507fffffffffffffffffffffffffffffffffffffffffffffffffffffffffffffffff8214156107805761077f61078b565b5b600182019050919050565b7f4e487b7100000000000000000000000000000000000000000000000000000000600052601160045260246000fd5b7f4e487b7100000000000000000000000000000000000000000000000000000000600052601260045260246000fd5b7f4e487b7100000000000000000000000000000000000000000000000000000000600052604160045260246000fd5b61082181610738565b811461082c57600080fd5b5056fea2646970667358221220004a940ce2dab79cdfce37cecca4836abd6efc934436324bf02f430a9b9b826164736f6c63430008000033",
  "linkReferences": {},
  "deployedLinkReferences": {}
}